:020000040000FA
:100000000C9462000C948A000C948A000C948A0070
:100010000C948A000C948A000C948A000C948A0038
:100020000C948A000C948A000C948A000C948A0028
:100030000C948A000C948A000C948A000C948A0018
:100040000C9432060C948A000C94A2060C947C0644
:100050000C948A000C948A000C948A000C948A00F8
:100060000C948A000C948A000000000024002700F1
:100070002A0000000000250028002B0000000008D6
:10008000000201000003040700000000000000005F
:1000900000000000230026002900040404040404D6
:1000A0000404020202020202030303030303010227
:1000B00004081020408001020408102001020408F6
:1000C0001020D40611241FBECFEFD8E0DEBFCDBF75
:1000D00011E0A0E0B1E0ECE0F7E102C005900D9284
:1000E000AE36B107D9F722E0AEE6B1E001C01D920D
:1000F000AF33B207E1F710E0C2E6D0E004C02197C9
:10010000FE010E947E0BC136D107C9F70E9440074D
:100110000C94840B0C940000CF92DF92EF92FF922C
:10012000CF93DF93B0911B02A0E08111AB2F8091A0
:100130001C0290E0880F991FAC0140575F4FC090A0
:100140002102D0902202E0902302F090240230E0BD
:1001500020E0FA01C591D491E881B90190E080E0F6
:10016000EB23EA130AC02F5F3F4F6C157D058E0508
:100170009F0578F36FEF7FEFCB01DF91CF91FF9079
:10018000EF90DF90CF900895FC01538D448D252F83
:1001900030E0842F90E0821B930B541710F0CF9621
:1001A000089501970895FC01918D828D981761F053
:1001B000A28DAE0FBF2FB11D5D968C91928D9F5F6A
:1001C0009F73928F90E008958FEF9FEF0895FC0149
:1001D000918D828D981731F0828DE80FF11D858DFC
:1001E00090E008958FEF9FEF0895FC01918D228D8F
:1001F000892F90E0805C9F4F821B91098F73992714
:100200000895FC01A48DA80FB92FB11DA35ABF4FAB
:100210002C91848D90E001968F739927848FA68905
:10022000B7892C93A089B1898C91837080648C9359
:10023000938D848D981306C00288F389E02D808108
:100240008F7D80830895EF92FF920F931F93CF933A
:10025000DF93EC0181E0888F9B8D8C8D98131AC001
:10026000E889F989808185FF15C09FB7F894EE89E8
:10027000FF896083E889F989808183708064808345
:100280009FBF81E090E0DF91CF911F910F91FF9090
:10029000EF900895F62E0B8D10E00F5F1F4F0F7338
:1002A0001127E02E8C8D8E110CC00FB607FCFACFF3
:1002B000E889F989808185FFF5CFCE010E9401018F
:1002C000F1CFEB8DEC0FFD2FF11DE35AFF4FF082C4
:1002D0009FB7F8940B8FEA89FB8980818062CFCF2A
:1002E000CF93DF93EC01888D8823B9F0AA89BB896D
:1002F000E889F9898C9185FD03C0808186FD0DC058
:100300000FB607FCF7CF8C9185FFF2CF808185FF78
:10031000EDCFCE010E940101E9CFDF91CF91089589
:1003200087E791E00E94F50021E0892B09F420E0A5
:10033000822F089580E090E0892B29F00E9490019F
:1003400081110C940000089590E0FC01E458FF4FE7
:100350002491FC01E255FF4F3491FC01E656FF4F1A
:10036000E491EE23C9F0222339F0233001F1A8F4FF
:10037000213019F1223029F1F0E0EE0FFF1FEE5885
:10038000FF4FA591B4918FB7F894EC91611126C0FD
:1003900030953E233C938FBF08952730A9F0283035
:1003A000C9F0243049F7809180008F7D03C080918F
:1003B00080008F7780938000DFCF84B58F7784BDF6
:1003C000DBCF84B58F7DFBCF8091B0008F7780939A
:1003D000B000D2CF8091B0008F7DF9CF3E2BDACF25
:1003E000CF93DF9390E0FC01E255FF4F24918656B6
:1003F0009F4FFC0184918823D1F090E0880F991FD2
:10040000FC01E859FF4FA591B491FC01EE58FF4F54
:10041000C591D491623071F49FB7F8943C91822FCA
:10042000809583238C93E8812E2B28839FBFDF91B7
:10043000CF9108958FB7F894EC912E2B2C938FBF0A
:10044000F6CF3FB7F89480916F0190917001A09121
:100450007101B091720126B5A89B05C02F3F19F01C
:100460000196A11DB11D3FBFBA2FA92F982F882734
:10047000BC01CD01620F711D811D911D42E0660F0F
:10048000771F881F991F4A95D1F708958F929F92E1
:10049000AF92BF92CF92DF92EF92FF924B015C013D
:1004A0000E9421026B017C010E9421026C197D09CE
:1004B0008E099F09683E734081059105A8F321E0EC
:1004C000821A9108A108B10888EEC80E83E0D81EF0
:1004D000E11CF11C81149104A104B10429F7FF90DF
:1004E000EF90DF90CF90BF90AF909F908F90089546
:1004F000CF92DF92EF92FF920F931F93CF93DF93F0
:10050000CDB7DEB7C054D1400FB6F894DEBF0FBEF2
:10051000CDBF2FB7F8948091730190917401A09191
:100520007501B09176012FBF40911D0250911E02BE
:1005300060911F02709120028C019D01041B150B1C
:10054000260B370BB901A801403D574061057105E5
:1005500090F480912502C05CDE4F0FB6F894DEBFA8
:100560000FBECDBFDF91CF911F910F91FF90EF9004
:10057000DF90CF90089580931D0290931E02A09368
:100580001F02B093200210921802109217021092CC
:100590001602109215021092140262E08091190264
:1005A0000E94F00161E070E080E090E00E9446026D
:1005B00061E0809119020E94F00160E080911902CF
:1005C0000E94A40180911A028551823020F58BE2AD
:1005D00091E10197F1F762E0809119020E94F00128
:1005E0008091260290E08230910538F0880F991FA3
:1005F000880F991F05970197F1F7F89480E00E9402
:100600008C006F3F7F4F8F4F9F4F61F410922502F8
:10061000789480E0A0CF64E170E080E090E00E94F8
:100620004602D9CF81E00E948C006F3F7F4F8F4FF1
:100630009F4F61F38E010F5F1F4F6E018FEBC81A42
:100640008EEFD80A780180E00E948C00F701608369
:1006500071838283938381E00E948C00F70164831D
:10066000758386839783F8E0EF0EF11CEC14FD048C
:1006700051F7789430E020E0F801C080D180E2802A
:10068000F3804481558166817781FFEFCF16DF06C5
:10069000EF06FF0631F04F3F8FEF580768077807E6
:1006A00019F410922502B5CFF90183E0F595E7958D
:1006B0008A95E1F7EC5EFD4F8081880FC416D50660
:1006C000E606F70610F180832F5F3F4F085F1F4F4C
:1006D0002832310589F64091180220911402809148
:1006E0001502280F3327331F80911602280F311D62
:1006F00080911702820F932F911D99274817190691
:1007000081F681E08093250226CF8160DCCFAF9215
:10071000BF92CF92DF92EF92FF920F931F93CF93EE
:10072000DF936C017B018B01040F151FEB015E0150
:10073000AE18BF08C017D10759F06991D601ED91E5
:10074000FC910190F081E02DC6010995892B79F784
:10075000C501DF91CF911F910F91FF90EF90DF9036
:10076000CF90BF90AF900895089590E080E00895F5
:10077000FC0101900020E9F73197AF01481B590BAC
:10078000BC0187E292E00C9487038F929F92AF9214
:10079000BF920F931F93CF93DF93CDB7DEB7A1978F
:1007A0000FB6F894DEBF0FBECDBF19A2423008F4D9
:1007B0004AE08E010F5D1F4F842E912CB12CA12C8D
:1007C000A50194010E945C0BE62FB901CA01EA3031
:1007D000F4F4E05DD801EE938D01232B242B252B1F
:1007E00079F790E080E0109719F0CD010E94B803EE
:1007F000A1960FB6F894DEBF0FBECDBFDF91CF91AB
:100800001F910F91BF90AF909F908F900895E95CDA
:10081000E1CFCF93DF93EC0160E08E810E94A401D1
:1008200061E08E810E94A40160E08E810E94A4019B
:100830008BE891E00197F1F7DF91CF910895CF9286
:10084000DF92EF92FF920F931F93CF93DF936C0190
:100850007C0187E0E80EF11CD0E0C0E0062F10E03C
:10086000B8010C2E02C0759567950A94E2F7617085
:10087000F70181917F010E94A4012196C430D10526
:1008800079F7C601DF91CF911F910F91FF90EF9003
:10089000DF90CF900C940904CF92DF92EF92FF92F9
:1008A0000F931F93CF93DF93EC01F62E642F8C816F
:1008B0000E94A4018D818F3F19F060E00E94A40185
:1008C0000F2D10E08F8584FF25C06E0187E0C80ED4
:1008D000D11CF12CE12CB8010E2C02C07595679546
:1008E0000A94E2F76170F60181916F010E94A40100
:1008F000FFEFEF1AFF0A88E0E816F10461F7CE0176
:10090000DF91CF911F910F91FF90EF90DF90CF90EB
:100910000C940904B80184E0759567958A95E1F710
:10092000CE010E941F046F2DCE01DF91CF911F9148
:100930000F91FF90EF90DF90CF900C941F0440E058
:10094000682F87E292E00C944C0481E00E949F049F
:100950008BE39FE10197F1F70895CF93DF93823006
:1009600029F49091360298609093360280933A026F
:1009700010923B0280E480933C0280E180933D0230
:1009800080E580933E0261E080912B020E94F0019D
:1009900080912C028F3F19F061E00E94F00161E02C
:1009A00080912D020E94F001C7E2D2E09E01275201
:1009B00032408091360284FD0BC084E090E02196A5
:1009C0002817390744F461E08E810E94F001EECFD0
:1009D00088E090E0F4CF8BE39DE00197F1F760E0D1
:1009E00080912B020E94A40160E080912D020E9460
:1009F000A40180912C028F3F19F060E00E94A401B5
:100A00008091360284FD34C063E087E292E00E9468
:100A10001F04CBE4D6E4CE010197F1F763E087E24F
:100A200092E00E941F042197F1F763E087E292E0D1
:100A30000E941F0483E592E00197F1F762E087E2EC
:100A400092E00E941F048091360280620E949F04FF
:100A500084E0809337028CE00E949F040E94A504EA
:100A600082E08093380286E0DF91CF910C949F045E
:100A700080620E949F048BE496E40197F1F78091D5
:100A8000360280620E949F0483E592E00197F1F7AD
:100A90008091360280620E949F04D5CF41E00E947F
:100AA0004C0481E090E008954F925F926F927F92A4
:100AB0008F929F92AF92BF92CF92DF92EF92FF926E
:100AC0000F931F93CF936B017C01742EAC019B019C
:100AD0000E94570B882399F08AE291E0CF911F91F1
:100AE0000F91FF90EF90DF90CF90BF90AF909F90CD
:100AF0008F907F906F905F904F900C94B803460159
:100B00005701E894B7F82FEF3FEF4FE75FE7C501D4
:100B1000B4010E94570B81110DC02FEF3FEF4FE73B
:100B20005FE7C501B4010E948D0918161CF48EE21E
:100B300091E0D4CF2FEF3FEF4FE75FE4C701B6015D
:100B40000E94E50A18161CF482E391E0C7CF2FEF4C
:100B50003FEF4FE75FECC701B6010E948D0987FDAB
:100B6000F3CF20E030E0A901C701B6010E948D0952
:100B700010E000E087FF0CC041E06DE287E292E008
:100B80000E944C04F7FAF094F7F8F09401E010E0BA
:100B9000C0E060E070E080E09FE37C1641F020E080
:100BA00030E040E251E40E949209CF5FF6CFA70106
:100BB00096010E9421094B015C010E94040A2B014D
:100BC0003C014AE00E94C503080F191FCC23C9F15C
:100BD000C301B2010E94330A9B01AC01C501B401FB
:100BE0000E9420094B015C0141E06EE287E292E045
:100BF0000E944C040F5F1F4FC15018F120E030E0FD
:100C000040E251E4C501B4010E94EA0A2B013C0113
:100C10000E94040A4B01B12CA12C4AE0C501B40189
:100C20000E94C503080F191FC501B4010E94330AB1
:100C30009B01AC01C301B2010E9420094B015C0180
:100C4000DBCFC801CF911F910F91FF90EF90DF9004
:100C5000CF90BF90AF909F908F907F906F905F905C
:100C60004F9008951F920F920FB60F9211242F9359
:100C70003F938F939F93AF93BF9380917301909114
:100C80007401A0917501B091760130916E0123E05D
:100C9000230F2D3758F50196A11DB11D20936E012C
:100CA0008093730190937401A0937501B0937601C2
:100CB00080916F0190917001A0917101B0917201CA
:100CC0000196A11DB11D80936F0190937001A093B7
:100CD0007101B0937201BF91AF919F918F913F913C
:100CE0002F910F900FBE0F901F90189526E8230F9D
:100CF0000296A11DB11DD2CF1F920F920FB60F9277
:100D000011242F933F934F935F936F937F938F9310
:100D10009F93AF93BF93EF93FF9387E791E00E9478
:100D20000101FF91EF91BF91AF919F918F917F91C1
:100D30006F915F914F913F912F910F900FBE0F9048
:100D40001F9018951F920F920FB60F9211242F9398
:100D50008F939F93EF93FF93E0918701F091880128
:100D60008081E0918D01F0918E0182FD1BC0908108
:100D7000809190018F5F8F7320919101821741F0D4
:100D8000E0919001F0E0E958FE4F958F809390013B
:100D9000FF91EF919F918F912F910F900FBE0F9028
:100DA0001F9018958081F4CFCF93E7E7F1E013828D
:100DB000128288EE93E0A0E0B0E084839583A6835E
:100DC000B78380E191E09183808385EC90E0958703
:100DD000848784EC90E09787868780EC90E0918B05
:100DE000808B81EC90E0938B828B82EC90E0958BF2
:100DF000848B86EC90E0978B868B118E128E138EEF
:100E0000148EE7E2F2E01382128282E291E0918393
:100E100080838CE084838FEF8583CBE0C68385E07D
:100E2000878384E0808783E0818782E082871386DE
:100E3000148615861686178681E00E94AD04A4E10B
:100E4000B2E08DE015968C9315971696CC93169775
:100E5000EBEBF0E0E4911796EC931797E7EAF0E0FC
:100E6000E4911896EC93189740E85EE360E070E038
:100E70001D964D935D936D937C935097CF910895FC
:100E8000789484B5826084BD84B5816084BD85B565
:100E9000826085BD85B5816085BD80916E00816071
:100EA00080936E0010928100809181008260809317
:100EB0008100809181008160809381008091800019
:100EC0008160809380008091B10084608093B10044
:100ED0008091B00081608093B00080917A0084603E
:100EE00080937A0080917A00826080937A0080916A
:100EF0007A00816080937A0080917A008068809384
:100F00007A001092C10082E00E94AD0486E391E075
:100F10000E94B80362E0809119020E94F0012FB78D
:100F2000F8948091730190917401A0917501B09132
:100F300076012FBF805D9740A109B10980931D0202
:100F400090931E02A0931F02B093200287E3809328
:100F5000260261E088E00E94F00160E088E00E94E3
:100F6000A4015CE0E52E51E0F52EC0E0D1E018814F
:100F7000229661E0812F0E94F00160E0812F0E94A3
:100F8000A401EC16FD0699F7E0913A02E23048F52B
:100F9000E150F0E0E95DFD4F848980680E949F0484
:100FA00086E491E00E94B80360ED77E080E090E095
:100FB0000E9446020E94A50400E010E00E94780210
:100FC000882341F080911A028C3009F464C058F4EF
:100FD0008B3011F1812C912C30ECA32E3FE7B32EF6
:100FE00045C0E1E0D6CF85518230A0F7F0901602DF
:100FF0006F2D70E0762F662766277F778091170226
:10100000682B90E080E00E94330A2DEC3CEC4CEC25
:101010005DE30E94EA0A5BC06091160270E090E016
:1010200080E00E94330A4B015C01F0901702F7FE4A
:101030000AC0AC019B0160E070E080E89FEB0E9479
:1010400020094B015C016F2D6F7070E090E080E033
:101050000E94350A2DEC3CEC4CEC5DE30E94EA0A60
:10106000A50194010E9421094B015C010E947802B4
:10107000882351F080911A028B3030F08D3080F14E
:101080008551823008F4B5C0C12CD12C20ECE22E61
:101090002FE7F22E43C0F09016026F2D70E090E023
:1010A00080E00E94330A4B015C01609117026F706F
:1010B00070E090E080E00E94350A2DEC3CEC4CECB6
:1010C0005DE30E94EA0AA50194010E9421094B01F7
:1010D0005C01F7FECBCFB7FAB094B7F8B094C6CFA7
:1010E0006091150270E090E080E00E94350A2DECDE
:1010F0003CEC4CEC5DE30E94EA0A6B017C016091E0
:10110000140270E090E080E00E94350A9B01AC017F
:10111000C701B6010E9421096B017C010E94A50450
:10112000E1E080913A028111E0E0E195F0E0E95DD3
:10113000FD4F848980680E949F0487E591E00E94AA
:10114000B80342E0C501B4010E9454058EE591E068
:101150000E94B803E0913A02E23008F05CC0E1502E
:10116000F0E0E95DFD4F848980680E949F0480E67D
:1011700091E00E94B80342E0C701B6010E94540505
:101180008BE691E00E94B80360ED77E080E090E0AC
:101190000E94460220E030E040EA52E4C701B60176
:1011A0000E94E50A90E0E92E91E0F92E1816ACF5C0
:1011B000F7018081F2E0EF0EF11C61E00E94A401D2
:1011C00068EE73E080E090E00E944602CE15DF05F5
:1011D00079F761E088E00E94A4010115110509F486
:1011E000EDCE0E949001882309F4E8CE0E94000011
:1011F000E5CE609114027091150276276727762755
:1012000090E080E00E94330A2DEC3CEC4CEC5DE376
:101210000E94EA0A81CFE1E0A3CFF7018081F2E0EA
:10122000EF0EF11C60E00E94A40168EE73E080E024
:1012300090E00E944602CE15DF0579F760E0CACF44
:101240005058BB27AA270E9438090C94AB0A0E9469
:101250009D0A38F00E94A40A20F039F49F3F19F447
:1012600026F40C949A0A0EF4E095E7FB0C94940A89
:10127000E92F0E94BC0A58F3BA1762077307840764
:10128000950720F079F4A6F50C94DE0A0EF4E095AB
:101290000B2EBA2FA02D0B01B90190010C01CA0130
:1012A000A0011124FF27591B99F0593F50F4503EDB
:1012B00068F11A16F040A22F232F342F4427585FCD
:1012C000F3CF469537952795A795F0405395C9F7E5
:1012D0007EF41F16BA0B620B730B840BBAF091509D
:1012E000A1F0FF0FBB1F661F771F881FC2F70EC03C
:1012F000BA0F621F731F841F48F48795779567950F
:10130000B795F7959E3F08F0B0CF9395880F08F0FA
:101310009927EE0F9795879508950E94700A08F413
:1013200081E008950E94A6090C94AB0A0E94A40AC9
:1013300058F00E949D0A40F029F45F3F29F00C9478
:10134000940A51110C94DF0A0C949A0A0E94BC0A68
:1013500068F39923B1F3552391F3951B550BBB27E4
:10136000AA2762177307840738F09F5F5F4F220F29
:10137000331F441FAA1FA9F335D00E2E3AF0E0E820
:1013800032D091505040E695001CCAF72BD0FE2F6A
:1013900029D0660F771F881FBB1F261737074807FE
:1013A000AB07B0E809F0BB0B802DBF01FF279358B6
:1013B0005F4F3AF09E3F510578F00C94940A0C94DC
:1013C000DF0A5F3FE4F3983ED4F3869577956795FF
:1013D000B795F7959F5FC9F7880F911D96958795EB
:1013E00097F90895E1E0660F771F881FBB1F62170A
:1013F00073078407BA0720F0621B730B840BBA0BC8
:10140000EE1F88F7E09508950E94C40A88F09F5760
:1014100098F0B92F9927B751B0F0E1F0660F771F18
:10142000881F991F1AF0BA95C9F714C0B13091F00E
:101430000E94DE0AB1E008950C94DE0A672F782F2F
:101440008827B85F39F0B93FCCF3869577956795D3
:10145000B395D9F73EF490958095709561957F4F3F
:101460008F4F9F4F0895E89409C097FB3EF49095E5
:101470008095709561957F4F8F4F9F4F9923A9F06D
:10148000F92F96E9BB279395F695879577956795FC
:10149000B795F111F8CFFAF4BB0F11F460FF1BC040
:1014A0006F5F7F4F8F4F9F4F16C0882311F096E9D3
:1014B00011C0772321F09EE8872F762F05C0662381
:1014C00071F096E8862F70E060E02AF09A95660F3A
:1014D000771F881FDAF7880F9695879597F90895F3
:1014E000990F0008550FAA0BE0E8FEEF1616170635
:1014F000E807F907C0F012161306E407F50798F09D
:10150000621B730B840B950B39F40A2661F0232BB5
:10151000242B252B21F408950A2609F4A140A69531
:101520008FEF811D811D089597F99F6780E870E016
:1015300060E008959FEF80EC089500240A94161649
:10154000170618060906089500240A9412161306B1
:10155000140605060895092E0394000C11F488233F
:1015600052F0BB0F40F4BF2B11F460FF04C06F5F5B
:101570007F4F8F4F9F4F089557FD9058440F551F31
:1015800059F05F3F71F04795880F97FB991F61F005
:101590009F3F79F087950895121613061406551F7C
:1015A000F2CF4695F1DF08C0161617061806991FE8
:1015B000F1CF86957105610508940895E894BB27DD
:1015C00066277727CB0197F908950E94700A08F4DF
:1015D0008FEF08950E94FD0A0C94AB0A0E949D0AA9
:1015E00038F00E94A40A20F0952311F00C94940A7C
:1015F0000C949A0A11240C94DF0A0E94BC0A70F31E
:10160000959FC1F3950F50E0551F629FF001729FA7
:10161000BB27F00DB11D639FAA27F00DB11DAA1FB6
:10162000649F6627B00DA11D661F829F2227B00D03
:10163000A11D621F739FB00DA11D621F839FA00D8E
:10164000611D221F749F3327A00D611D231F849FDE
:10165000600D211D822F762F6A2F11249F57504035
:101660009AF0F1F088234AF0EE0FFF1FBB1F661FB0
:10167000771F881F91505040A9F79E3F510580F079
:101680000C94940A0C94DF0A5F3FE4F3983ED4F381
:10169000869577956795B795F795E7959F5FC1F71D
:1016A000FE2B880F911D9695879597F908950E94B6
:1016B000700A880B990B0895A1E21A2EAA1BBB1B76
:1016C000FD010DC0AA1FBB1FEE1FFF1FA217B3070E
:1016D000E407F50720F0A21BB30BE40BF50B661F24
:1016E000771F881F991F1A9469F7609570958095E8
:1016F00090959B01AC01BD01CF010895EE0FFF1F36
:101700000590F491E02D0994F894FFCF0E000F009E
:1017100010001100120013000000000023018703D5
:10172000C4007001F500D300E700000000004E0582
:101730008703B503B4036E616E00696E66006F7651
:101740006600496E697469616C697A696E672E2EEC
:101750002E0048756D69646966696572205265611D
:1017600064790054656D703A2000430048756D69D6
:0A177000646974793A200025000036
:107E0000112484B714BE81FFF0D085E080938100F7
:107E100082E08093C00088E18093C10086E0809377
:107E2000C20080E18093C4008EE0C9D0259A86E02C
:107E300020E33CEF91E0309385002093840096BBD3
:107E4000B09BFECF1D9AA8958150A9F7CC24DD24C4
:107E500088248394B5E0AB2EA1E19A2EF3E0BF2EE7
:107E6000A2D0813461F49FD0082FAFD0023811F036
:107E7000013811F484E001C083E08DD089C08234E0
:107E800011F484E103C0853419F485E0A6D080C0E4
:107E9000853579F488D0E82EFF2485D0082F10E0AE
:107EA000102F00270E291F29000F111F8ED06801E7
:107EB0006FC0863521F484E090D080E0DECF843638
:107EC00009F040C070D06FD0082F6DD080E0C81688
:107ED00080E7D80618F4F601B7BEE895C0E0D1E017
:107EE00062D089930C17E1F7F0E0CF16F0E7DF06D8
:107EF00018F0F601B7BEE89568D007B600FCFDCFD4
:107F0000A601A0E0B1E02C9130E011968C91119780
:107F100090E0982F8827822B932B1296FA010C0160
:107F200087BEE89511244E5F5F4FF1E0A038BF0790
:107F300051F7F601A7BEE89507B600FCFDCF97BE46
:107F4000E89526C08437B1F42ED02DD0F82E2BD052
:107F50003CD0F601EF2C8F010F5F1F4F84911BD097
:107F6000EA94F801C1F70894C11CD11CFA94CF0C13
:107F7000D11C0EC0853739F428D08EE10CD085E9AC
:107F80000AD08FE07ACF813511F488E018D01DD067
:107F900080E101D065CF982F8091C00085FFFCCF94
:107FA0009093C60008958091C00087FFFCCF809118
:107FB000C00084FD01C0A8958091C6000895E0E648
:107FC000F0E098E1908380830895EDDF803219F02E
:107FD00088E0F5DFFFCF84E1DECF1F93182FE3DFCA
:107FE0001150E9F7F2DF1F91089580E0E8DFEE27F6
:047FF000FF270994CA
:027FFE00040479
:00000001FF
